:020000040800F2
:1000000000170020CD0200084F2D00084B2D0008DE
:100010004D2D0008451D00081D310008000000009E
:100020000000000000000000000000003502000891
:10003000471D00080000000079020008BD2D0008DF
:10004000E7020008E7020008E7020008E7020008EC
:10005000E7020008E7020008E7020008E7020008DC
:10006000E7020008E7020008E7020008E7020008CC
:10007000E7020008E7020008E7020008E7020008BC
:10008000E7020008E7020008E7020008E7020008AC
:10009000E7020008E7020008E7020008E70200089C
:1000A000E7020008E7020008E7020008E70200088C
:1000B000E7020008E70200083D2E0008E7020008FA
:1000C000E7020008E7020008E7020008E70200086C
:1000D000E7020008E70200080531000811310008B6
:1000E000E7020008E7020008E702000800F002F853
:1000F00000F090F80AA090E8000C82448344AAF132
:100100000107DA4501D100F085F8AFF2090EBAE82F
:100110000F0013F0010F18BFFB1A43F0010318473B
:100120005047000070470000103A24BF78C878C1DB
:10013000FAD8520724BF30C830C144BF04680C60ED
:10014000704700000023002400250026103A28BF35
:1001500078C1FBD8520728BF30C148BF0B60704739
:100160006E2900F04382702900F08583662904F02F
:10017000B982652904F0B682672904F0B382612947
:1001800004F0B28203681B0A28BF41F0800169298C
:1001900000F0F081642900F0ED81752900F0EA811A
:1001A0006F2900F01283782900F05183E92900F0CB
:1001B000AD82E42900F0AA82F52900F0A782EF2998
:1001C00000F00F83F82900F050830368DB0928BF93
:1001D00041F08001632901F05380732901F05880B8
:1001E000E32901F06380F32901F068800020704763
:1001F0001FB501F0B5F804000020002104F05CFAFE
:10020000401C60600020002104F040FAE0601FBD47
:1002100010B510BD01F076F81146FFF7E9FF02F0C6
:10022000AFFF01F053F903B4FFF7F2FF03BC01F095
:100230009BF90000224B19680868B0E8F00F80F3C2
:100240000988BFF36F8F4FF0000080F311884EF0E4
:100250000D0E70470000000006480068006880F33B
:10026000088862B661B6BFF34F8FBFF36F8F00DFB0
:1002700000BF00BF08ED00E0EFF30980BFF36F8F10
:100280000F4B1A6820E9F00F106008B54FF05000CE
:1002900080F31188BFF34F8FBFF36F8F03F0F4FC2F
:1002A0004FF0000080F31188BDE808401968086825
:1002B000B0E8F00F80F30988BFF36F8F704700BF7D
:1002C0001C000020EFF305807047000009488047BC
:1002D00009480047FEE7FEE7FEE7FEE7FEE7FEE728
:1002E000FEE7FEE7FEE7FEE704480549054A064B40
:1002F00070470000392E0008ED00000800110020B2
:100300000017002000130020001300201CB50C462D
:10031000064B7B4469460090204600F080F9044675
:100320000020694600F08EF920461CBD2F03000016
:1003300010B5431C02E010F8011B71B18107FAD11E
:100340004FF0013202C88C1A8C4314EAC211F9D062
:10035000C01A0A0603D0C01E10BDC01A10BD0A0480
:1003600001D0801E10BD0902FCD0401E10BD032A22
:1003700040F2308010F0030C00F0158011F8013BC2
:10038000BCF1020F624498BF11F801CB00F8013BA9
:1003900038BF11F8013BA2F1040298BF00F801CB6D
:1003A00038BF00F8013B11F0030300F02580083A44
:1003B000C0F0088051F8043B083A51F804CBA0E89B
:1003C0000810F5E7121D5CBF51F8043B40F8043BF0
:1003D000AFF30080D20724BF11F8013B11F801CB25
:1003E00048BF11F8012B24BF00F8013B00F801CBF6
:1003F00048BF00F8012B704710B5203AC0F00B80C1
:10040000B1E81850203AA0E81850B1E81850A0E818
:100410001850BFF4F5AF5FEA027C24BFB1E8185072
:10042000A0E8185044BF18C918C0BDE810405FEAE2
:10043000827C24BF51F8043B40F8043B08BF70475E
:10044000D20728BF31F8023B48BF11F8012B28BF63
:1004500020F8023B48BF00F8012B70474FF0000224
:1004600000B5134694469646203922BFA0E80C50AA
:10047000A0E80C50B1F12001BFF4F7AF090728BF85
:10048000A0E80C5048BF0CC05DF804EB890028BF01
:1004900040F8042B08BF704748BF20F8022B11F02A
:1004A000804F18BF00F8012B7047704770477047A6
:1004B00070B5044685690068C10601D5302600E0A4
:1004C0002026C00707D070BDD4E9012130469047EF
:1004D000206A401C20626D1EF6D570BD70B50446C2
:1004E00085690078C00707D170BDD4E901212020BB
:1004F0009047206A401C20626D1EF6D570BD0968C9
:100500004A0501D540B27047C905FCD500B2704715
:1005100009684A0501D5C0B27047C905FCD580B24B
:10052000704770B50C460546012A05D0287880062C
:1005300000D5EA69002302E0012305E05B1C934239
:1005400002D2E05C0028F9D1A869E618C01AA861B7
:10055000286A184428622846FFF7AAFF04E0D5E974
:10056000012114F8010B9047B442F8D32846FFF755
:10057000B5FF70BD2DE9F0410646002410687529CD
:10058000314616A510D0FFF7BAFF002802DA404224
:1005900013A507E031688A0701D512A502E04907D3
:1005A00004D511A5012401E0FFF7B2FF00210A22C2
:1005B00006F1240709E0B0FBF2FCB0FBF2F302FB0A
:1005C0001C00303078541846491C0028F3D12346CB
:1005D0002A463046BDE8F04100F061BA0000000054
:1005E0002D0000002B0000002000000011680268B0
:1005F000006A530501D508700AE0D30501D50880CB
:1006000006E0130603D5C217C1E9000200E0086046
:100610000120704701694A1C02610878704700B5E3
:100620008FB0CDE901310021059105497944CDE92B
:1006300003101146684600F029F90FB000BD000014
:10064000E5FFFFFF0A6802F8010B0A60704700002F
:100650002DE9FF5F15468A460446DFF8AC80F84472
:100660000027D8E900103E46CDE9001010E03AF826
:1006700016106A4602A800F025FE411C07D021781A
:10068000890603D5E269391891420DD80744761CD2
:100690002078800602D5E069B84205DDAE42E6DB8F
:1006A0003AF816000028E2D1A069C01BA0612046DC
:1006B000FFF7FEFED8E90010CDE90010002017E09A
:1006C0003AF818106A4602A800F0FCFDB0F1FF3FAE
:1006D00081460BD000250DF1080B05E0D4E901217E
:1006E0001BF8050090476D1C4D45F7D308F101003C
:1006F000B0428046E4DB206A384420622046FFF79F
:10070000EDFEBDE8FF9F0000FE4000002DE9F04136
:100710008046D21D22F007020025D2E90002F52909
:1007200015A614D0011E72F1000106DA0023D0EBE9
:10073000030063EB020211A608E0D8F800108B0753
:1007400001D50FA602E0490701D50EA601251146E5
:10075000002408F1240704E000F05CF930323A5537
:10076000641C50EA0102F7D12B463246214640462E
:10077000BDE8F04100F093B9000000002D0000003A
:100780002B0000002000000030B4002100F1240400
:1007900008E002F00705D208303542EA4372DB0870
:1007A0006554491C52EA0305F3D10468002310A2E2
:1007B000250707D5A40600D421B1C46901230DA2E1
:1007C000641EC46130BC00F06AB910B5044621460D
:1007D0001068FFF79DFE02462046BDE8104000234A
:1007E000D2E7D21D22F00701D1E90023CCE70000B7
:1007F0000000000030000000F0B40D46018809053B
:1008000002D5214C7C4402E01F4C7C440E34002174
:1008100000F1240608E002F00F071209E75D42EA42
:1008200003721B097754491C52EA0307F3D102787B
:100830000023120704D5702D06D009B1022311340C
:100840002246F0BC00F02BB901231034F8E770B554
:1008500004460D4621461068FFF75AFE0246294617
:100860002046BDE870400023C6E7D21D22F00703F2
:10087000D3E90023C0E70368126843F02003036054
:100880000823C3610023B7E7603F00002DE9F05F54
:10089000894604464FF0000ADFF874B1FB44C0F803
:1008A00020A02046E1688847002874D0252806D07B
:1008B000D4E901219047206A401C2062F1E700261C
:1008C0005F462046E16888472028054607DB312D32
:1008D00005D2781910F8200C08B10643F1E7B007EB
:1008E00001D526F00406C4F81CA00027C4F818A0FF
:1008F0002A2D09D0284602F036FC38B304EB8708CD
:10090000303DC8F8185019E059F8041B204604EB94
:1009100087029161E1688847012F054618D1E06997
:10092000002820DA26F020061DE0D8F8180000EB99
:10093000800005EB40003038C8F818002046E16818
:100940008847054602F00FFC0028EED1012F0AD09F
:100950002E2D08D12046E16888477F1C0546022FCE
:1009600046F02006C4DBA069002803DA404246F0C6
:100970000106A061F00701D026F010066C2D0BD007
:10098000682D09D04C2D39D06A2D35D0742D35D035
:100990007A2D33D016E038E0E1682F4620468847AC
:1009A000B842054609D16C2F26D04FF48060E1682B
:1009B000064320468847054604E06C2F1AD04FF4C2
:1009C000807006430DB3A5F14100192802D82035E7
:1009D00046F400664A462946204626604E46FFF702
:1009E000BFFB80B101280BD0F61D26F0070000F1F7
:1009F000080956E74020E4E78020D8E70020D6E742
:100A000006F104094DE7284652E7206ABDE8F09F49
:100A1000F03E000030B5B0F10A024FEA900E71F1DD
:100A200000034EEA817EB0EB0E0061EB91014FEACC
:100A3000101E4EEA017E10EB0E0041EB11114FEA41
:100A4000102E4EEA016E10EB0E0041EB11214FEA21
:100A5000104E4EEA014E10EB0E0041EB11414018D2
:100A600041F100014FEAD00040EA41704FEAD10164
:100A700010EB80054FEA810444EA907444EB0104D2
:100A80006D1944EB0404521BA3414FF0000348BF0F
:100A90000A3200D530BD401C41F1000130BD2DE9C6
:100AA000F0470D4699469246044600F12408016835
:100AB000880604D5E06921F01001216000E00120E2
:100AC000A84201DD471B00E00027A1697A1902EB6B
:100AD0000900081AA0612078C00602D42046FFF75A
:100AE000E7FC002608E0D4E901211AF80600904747
:100AF000206A401C761C20624E45F4DB2078C0063C
:100B00000AD52046FFF7D4FC06E0D4E901213020C5
:100B10009047206A401C2062381EA7F10107F4DCD0
:100B200007E0D4E9012118F805009047206A401C2D
:100B30002062281EA5F10105F3DC2046FFF7CEFC5C
:100B40002078000602D50220BDE8F0870120FBE7EF
:100B500070472DE9FF4F0C461E464FF0FF378BB014
:100B6000D2E90001DDF860800A908A46C1F30A5597
:100B700005B93D46002108464FF00000BAF1000FCC
:100B800000F4400005DA00EB80004FF4400101EA78
:100B900050004FEA9059B9F1010F00DDB9460A98AB
:100BA00050EA4A000ED044F61050A5F2FF354543F6
:100BB0002F14B8F1000F1ED07542291E1EDDC9F199
:100BC00000021CE0B8F1010F4FF0000001D030210D
:100BD00003E0F24305E02154401CB042FBDB304609
:100BE0000022002121540B99C1F80880C1E900209E
:100BF0000FB0BDE8F08FBD1B6D1CDEE74A4600DA82
:100C0000694206A800F0F0FB06AB93E8070003ABCF
:100C100083E8070050460A9900F0ADFC8DE8070014
:100C2000A0F500501F3800900398002D0ADD42F215
:100C30001F014A460844002303A90390684600F0B8
:100C400016FF09E0A0F500504A461F38002303A90B
:100C50000390684600F020FF8DE807000004000CB8
:100C600003D04FF0FF30410800E01046B8F1000F0C
:100C700003D00022009215461EE0751E05D4FFF732
:100C8000C9FE303262556D1EF9D5B34601220843C4
:100C900002D000227F1C04E02078302801D10022FD
:100CA0007F1E002A099784D01DE0112D07DAFFF777
:100CB000B1FE303262556D1C50EA0102F5D1084395
:100CC00002D00098C8B10EE00021681E05E0235C48
:100CD000625C63542254401E491C8142F7DBAB46E0
:100CE000A81B401E0990002004F80B000B98099ADD
:100CF000C0F80880C0E9002B7AE711264FF0000801
:100D000057E72DE9F04F88460446D21D22F007012F
:100D100091B0D1E90001CDE90A0102F000FA0246E2
:100D20000B98C00F01D02D2007E02068810701D566
:100D30002B2002E0202101EAC000032A099001D003
:100D4000072A05DB03464146204600F00DFB0BE178
:100D50002078800601D5E06900E00620B8F1650F33
:100D6000814606D0B8F1660F18D0B8F1670F70D180
:100D700031E00020B9F1110F009001DB112301E0F7
:100D800009F101030AAA01A90CA8FFF7E2FEDDE9B7
:100D90000C70002609F10105834647E001204B460F
:100DA00000904FF000470AAA01A90CA8FFF7D1FE56
:100DB000DDE90DB00C995D46002610B909F101007E
:100DC0000D18B9EB050003D4C0F1FF3609F1010598
:100DD000A5EB09002BE0B9F1010F01DA4FF0010991
:100DE0000020B9F1110F0090484601DD112300E009
:100DF00003460AAA01A90CA8FFF7ABFEDDE90C70B7
:100E00004D4600268346207800070AD4AB4500DA19
:100E10005D4601A8012D04DD411911F8011C30299E
:100E200007D04F4502DA17F1040F04DA0120824699
:100E30000FE06D1EEEE7002F02DCED1B3E4403E0E9
:100E4000781CA84200DD7D1CB81B00F1010A4FF0A0
:100E500000472078000703D4AA4501DB4FF0FF3A92
:100E60000021B7F1004F0DF143088DF8431024D055
:100E700002202B23002F01DA7F422D230A21021E9C
:100E8000A0F1010000DC5FB197FBF1FC97FBF1F2F0
:100E900001FB1C7C17460CF1300C08F801CDEEE785
:100EA000A8F1010003702188090501D5452100E062
:100EB0006521A0F1010800F8011C09980FA9A1EB18
:100EC0000807FF1D00B10120411901EBEA70A1697B
:100ED0003844081A401EA0612078C00602D420467B
:100EE000FFF7E6FA099828B1D4E901219047206A72
:100EF000401C20622078C00622D52046FFF7D8FA91
:100F00001EE0002E04DBB34502DD01A8805D00E099
:100F10003020D4E901219047206A401C2062761CD1
:100F2000AAF101005FEA000A0AD100F019FAC068CC
:100F30000168405CD4E901219047206A401C20628E
:100F4000281EA5F10105DCDC07E0D4E9012118F831
:100F5000010B9047206A401C2062381EA7F1010750
:100F6000F3DC2046FFF7BAFA032011B041E6000097
:100F70002DE9F04F04460D46D21D22F0070089B03E
:100F8000D0E900974846394602F0C9F80246F80F02
:100F900001D02D2307E02068810701D52B2302E033
:100FA000202101EAC0038DF820300BB1012000E0C0
:100FB0000020032A824601D0072A04DB2946204666
:100FC00000F0D2F93FE12078800601D40D2500E041
:100FD000E569C7F30A560D2D49DA00214FEA175B80
:100FE00008464FF00000002F00F4400007DA00EB45
:100FF00080004FF4400100EBD07001EA60008115E1
:10100000012901DD4FF0FF3100224FEA850CBCF1D0
:10101000180F06D31346ACF118004FF08052C240AF
:1010200003E04FF4801323FA0CF30CF10C0CBCF129
:10103000200F04D3ACF1200C09FA0CF001E007FA00
:101040000CF000294FF0004801DD18B90FE00ED177
:1010500040450CD319EB02095F4121B9404502D14B
:101060009F4329EA0209BBEB175F00D0761C20885A
:10107000000502D57B48784402E07A487844193864
:1010800008AA302302F80A30037C0AF10101002E7D
:101090000AF1020A53546A4602DC4FF0300101E0C3
:1010A0004FF031014FF001088DF8001002D0A6F288
:1010B000FF3603E059EA470100D06B4E002D02DCF9
:1010C0002178090704D54FF002082E218DF8011070
:1010D000C44600210BE0C7F303433F01C35C491C36
:1010E0006D1E02F80830052908F1010801DA002D0B
:1010F000F1DC00210CE000EB1973491C1B786D1E1C
:10110000082902F808304FEA091908F1010801DA44
:10111000002DF0DC21688B0602D516E0A8F101084D
:10112000E04505DD02EB080313F8013C302BF5D058
:10113000B8F1000F09DD02EB080313F8013C2E2B78
:1011400003D1090701D4A8F10108002D05DD3E21D6
:1011500002F808106D1E08F10108407C002E02F80C
:10116000080008F1010804DA2D20764202F8080090
:1011700002E02B2002F808000A214FF47A70864220
:1011800008F101080BDB96FBF0F3303302F808306E
:1011900096FBF0F308F1010800FB136601E0642EF2
:1011A0000CDB642096FBF0F3303302F8083096FB3A
:1011B000F0F308F1010800FB136601E00A2E06DBDC
:1011C00096FBF1F0303002F8080008F1010896FBB8
:1011D000F1F001FB1060303002F80800A16908F15D
:1011E000010808EB050202EB0A00081AA06120784A
:1011F000C00602D42046FFF75BF9216A08AE01EB76
:101200000A00206204E0D4E9012116F8010B90479E
:10121000BAF1010AF7D22078C00602D52046FFF7BE
:1012200047F96E4609E016F8010B3E280FD0D4E9C5
:1012300001219047206A401C2062B8F10108F2D2D7
:101240002046FFF74BF909B00320BDE8F08F206A74
:101250002844206203E0D4E90121302090476D1E2C
:10126000EBD3F8E73A37000002FCFFFF10B5436903
:1012700013B1AFF3008001E0FFF753F9012010BD77
:10128000127800F124010A7000224A700122EDE771
:1012900011684FF0FF32E9E710B5436913B1AFF3BE
:1012A000008001E0FFF7D4F9012010BD128800F1A1
:1012B000240182840022C2840122EDE711684FF0EC
:1012C000FF32E9E770B516460C46054600F040F8D7
:1012D000036893F80101012806D0FF2C0FD8185D90
:1012E00068B101202C7070BDD3F807013246214649
:1012F00003F2071303442846BDE8704018474FF037
:10130000FF3070BD754600F0EBF8AE46050069464B
:10131000534620F00700854618B020B5FEF7E4FFDD
:10132000BDE820404FF000064FF000074FF00008E6
:101330004FF0000B21F00701AC46ACE8C009ACE867
:10134000C009ACE8C009ACE8C0098D467047000090
:1013500010B500F005F8001D10BD00BF5D330000A2
:1013600000487047C01000202DE9F0411F46044698
:1013700003260168072A01F4006004DB08B116A502
:1013800005E016A503E008B115A500E015A521F0BC
:1013900010002060A069C01EA0610FB1401EA061B6
:1013A0002046FFF785F84FB1D4E901213846904730
:1013B000206A401C2062C01C206206E0206AFAE716
:1013C000D4E9012115F8010B9047761EF8D220468A
:1013D000FFF784F8BDE8F0814E414E006E616E006B
:1013E000494E4600696E66002DE9F0478146164673
:1013F0008AB0354878440DC88DE80D0032487844ED
:10140000801C03AC0DC884E80D0041F69B300844F5
:10141000372190FBF1F290FBF1F5A5F1800501FB7E
:1014200012041B3C02D56442012000E00020DFF8DA
:1014300098A080460027FA44AAF1BE0A0EE0E00711
:101440000AD03246684607EB470101230AEB8101C7
:1014500000F022FB8DE8070064107F1C002CEED109
:10146000194F7F44AE3F19E0E80715D007EB041091
:101470000DF1180A90E80E008AE80E00C068F042EC
:1014800001D1981908903246012306A903A800F05B
:1014900003FB03AB83E807006D10641C002DE3D150
:1014A0004FF0010332466946B8F1000F03A802D09D
:1014B00000F0DDFA01E000F0EFFAC9E90001C9F837
:1014C00008200AB0BDE8F0874C34000010B504468F
:1014D000AFF300802046BDE81040FEF7A4BE000038
:1014E00000487047A01000204FF0013C50F8042B3A
:1014F00051F8043B9A4221D1A2EB0C03934313EA27
:10150000CC1317D150F8042B51F8043B9A4215D153
:10151000A2EB0C03934313EACC130BD150F8042B2A
:1015200051F8043B9A4209D1A2EB0C03934313EA0E
:10153000CC13DBD04FF00000704700BFD01A01BAC7
:10154000B1FA81F101F0180122FA01F0CB40C1F1AA
:101550002001DBB2C0B2C01A2CFA01F3D11A9143B8
:1015600011EAC311E6D1704701491820ABBEFEE76E
:101570002600020070475FEA400C08BF91F0000FA0
:101580004FEA8C234FEAC12243EA51514FEA1C50E3
:1015900018BF00F5F0404FEA300018BF41F000419D
:1015A0005FEA6C5C00F02980BCF1FF3F08BF40F0AF
:1015B00080407047130C06BF12044FF0100C4FF020
:1015C000000C130E04BF12020CF1080C130F04BF21
:1015D00012010CF1040C930F04BF92000CF1020CE9
:1015E000D30F04BF52000CF1010C11464FF0000262
:1015F000A0F11F00A0EB0C00704711F0004F08BFD6
:10160000704731F000413FF4D5AF0B0C06BF090421
:101610004FF0100C4FF0000C0B0E04BF09020CF140
:10162000080C0B0F04BF09010CF1040C8B0F04BF55
:1016300089000CF1020CCB0F04BF49000CF1010C26
:10164000CCF12003A0EB0C0022FA03F302FA0CF217
:1016500041EA030100F10100704720F07F4C80EA6D
:10166000030023F07F47ACEB070303F57C5300F046
:10167000004003F1FF032DE980494FEA154B09B4FF
:101680004FEA144325EA0B4E24EA03480FF20426DE
:1016900006EB132749083E785FEA320203FB066730
:1016A000C7F5000707FB06F64FEA54374FEAD64660
:1016B00006F1020607FB066CCCF1005C4FEA1C4702
:1016C0002CEA074C07FB06F40CFB06F504EB154669
:1016D0004FEA961634BF00204FF000404FEAD13752
:1016E00006FB07FC4FEA1C4C0CFB0BF7D21B03FB61
:1016F0000CF761EB07010CFB0EF7B0EB074072EB48
:1017000017420CFB08F734BFA2EB0742B2EB0742CB
:1017100061EB17414FEA0C444FEA910706FB07FCC7
:101720004FEA1C4C0CFB0BF7B0EBC74072EB573287
:1017300003FB0CF734BFA2EBC742B2EBC74261EB2D
:1017400057310CFB0EF7B0EBC70072EB57720CFB76
:1017500008F734BFA2EBC702B2EBC70261EB5771C7
:10176000039F4FEA816141EA921104EBCC044FEAF6
:10177000D1374FEA826206FB07FC42EA90124FEA39
:1017800080604FEA1C4C0CFB0BF7D21B03FB0CF7E1
:1017900061EB07010CFB0EF7B0EB074072EB174251
:1017A0000CFB08F734BFA2EB0742B2EB074261EB38
:1017B00017414FEA8C554FEA910704EB9C2406FB36
:1017C00007FC4FEA1C4C0CFB0BF7B0EBC74072EB6D
:1017D000573203FB0CF734BFA2EBC742B2EBC74250
:1017E00061EB57310CFB0EF7B0EBC70072EB577291
:1017F0000CFB08F734BFA2EBC702B2EBC70261EBE8
:10180000577115EB4C254FEA816141EA92114FEA7D
:1018100082624FEAD13742EA901206FB07FC44F19C
:1018200000044FEA80604FEA1C4C0CFB0BF7D21B04
:1018300003FB0CF761EB07010CFB0EF7B0EB074065
:1018400072EB17420CFB08F734BFA2EB0742B2EB76
:10185000074261EB174115EB1C154FEA813141EA54
:1018600092414FEA823242EA90424FEA80304FEA98
:101870000C7644F1000448EA03434EEA0B484FF06B
:10188000000EB2EB080C71EB030724BF6246394629
:101890004EEB0E0E4FF0000B0018524149414BEB3E
:1018A0000B0BB2EB080C71EB03077BF1000B24BFB1
:1018B000624639464EEB0E0E4FF0000B00185241B7
:1018C00049414BEB0B0BB2EB080C71EB03077BF1BF
:1018D000000B24BF624639464EEB0E0E51EA02075A
:1018E00018BF46F0010616EB0E7655F1000254F1D2
:1018F000000103D5BDE88901BDE80088BDE8890184
:10190000BDE80048B619524141EB0101A3F10103C2
:10191000704780807F7E7D7C7B7A7978777676755C
:101920007473727171706F6E6E6D6C6C6B6A6A69D4
:101930006868676666656464636362616160605F6E
:101940005F5E5E5D5D5C5C5B5B5A5A5959585857E7
:10195000575656555555545453535252525151504F
:1019600050504F4F4F4E4E4D4D4D4C4C4C4B4B4BA2
:101970004A4A4A49494948484847474747464646E8
:101980004545454444444443434343424242424123
:101990004141002B9C4630D477002BD01CB54FEA38
:1019A000370703B44FF010004FF01001BAF1000FE9
:1019B00006D0BCF1000FDCBF40F0080040F0080189
:1019C0004FF000000FBCBDE810400BF1010BBBF164
:1019D000010F08BF5FEA170722BF12F1010211F1E0
:1019E00001014FF0004143F1000300F0004043EAE1
:1019F00000007047F9D35708D0E746EA064613F1CE
:101A0000400F4FEA16461FDD13F1200FDFBF1643CC
:101A10000A46002120335B42BED0C3F1200746EACC
:101A2000064602FA07F74FEA164646EA0706C3F1EA
:101A3000200722FA03F201FA07F721FA03F14FF027
:101A4000000342EA0702A7E746EA020646EA06461C
:101A50004FEA164646EA0106BCBF46EA0646360C81
:101A60004FF000034FF000024FF0000194E72DE922
:101A7000804C9A46934670B491E8380007C831EA22
:101A8000400C48BF34EA430C03D5FFF7E6FDFFF7EF
:101A900080FFF0BCBDE8008C2DE9804C9A4693464F
:101AA00070B491E8380007C810F0804F08BF13F0F9
:101AB000804F03D100F005F8FFF76BFFF0BCBDE8E5
:101AC000008C20F07F4780EA030023F07F4C07EB77
:101AD0000C03A3F57C5300F00040A3F1FE0392F049
:101AE000000F00F0B38095F0000F00F077802DE933
:101AF00001494FEA11404FEA144621EA004800FB31
:101B000006FC24EA064708FB06F607FB08F800FB7C
:101B100007F718EB06484CEB164C4FEA124B18EB44
:101B200007484FEA15464CEB174022EA0B4E0BFBD9
:101B300006FC25EA06470EFB06F607FB0EFE0BFB2E
:101B400007F71EEB064E4CEB164C4FF000061EEB53
:101B5000074E4CEB174B18EB0B0840F1000018EB4D
:101B60000E0B58EB000840F100008F1A4FF00001F7
:101B70003CBFC943661B14BFB5EB040C00213CBF3E
:101B8000C943F61B4FEA17444EEA8E0E27EA044576
:101B90004FEA1C4704FB07622CEA074C05FB07F7DA
:101BA0000CFB05F604FB0CFC16EB074642EB174258
:101BB00016EB0C4642EB1C421BEB060658EB0202EE
:101BC000414146EA9E0601D5BDE80189B619524158
:101BD00041EB0101A3F10103BDE801894FEA14457E
:101BE0004FEA114724EA054621EA074C05FB07F4B2
:101BF00006FB07F70CFB06F105FB0CFC11EB07419C
:101C000044EB17444FEA124711EB0C4144EB1C44E0
:101C100022EA074C05FB07F206FB07F70CFB06F66A
:101C200005FB0CFC16EB074642EB174216EB0C4685
:101C300042EB1C456A1854F1000148BF7047B619C1
:101C4000524141EB0101A3F10103704795F0000FF0
:101C500037D04FEA11424FEA144721EA024624EAFC
:101C6000074C02FB07F106FB07F70CFB06F402FB2F
:101C70000CFC14EB074441EB17414FEA154714EBFA
:101C80000C4441EB1C4125EA074C02FB07F506FB1F
:101C900007F70CFB06F602FB0CFC16EB074645EBC0
:101CA000174516EB0C4645EB1C42121951F1000189
:101CB00048BF7047B619524141EB0101A3F101033E
:101CC00070474FEA14454FEA114724EA054621EAD6
:101CD000074C05FB07F106FB07F70CFB06F24FF07C
:101CE000000605FB0CFC12EB074241EB174112EB1F
:101CF0000C4251EB1C4148BF7047921841EB010167
:101D0000A3F1010370470000074D4FF47A7407A058
:101D100001F02AFE14210A22686801F00FFB204618
:101D200001F0A2FAF3E70000000000200A20746826
:101D3000697320697320436C69656E745F746173A5
:101D40006B200000FEE7704710B590F821100022CC
:101D5000022905D00421816380F82020012010BDD4
:101D600001680B6823F00E030B6001680B6823F019
:101D700001030B6090F84030C46B012101FA03F3BA
:101D8000636080F8211080F82020104610BD00000C
:101D900010B590F821100024022903D0042181639A
:101DA00001243DE001680A6822F00E020A60016821
:101DB0000A6822F001020A601A4A0168914201D1C0
:101DC000012121E0174A1432914201D110211BE078
:101DD000144A2832914201D1891515E0114A3C324A
:101DE000914201D189140FE00E4A5032914202D142
:101DF0004FF4803108E00B4A6432914202D14FF433
:101E0000801101E04FF08071064A083A51600121CB
:101E100080F82110002180F82010416B01B1884723
:101E2000204610BD080002402DE9F84FDFF8B891B8
:101E30000024A9F1040B23460F2709F1040AABF192
:101E4000040EC9E00125A5402A40AA427DD1674E73
:101E5000D1F804C0ACEB0608B44532D014DCBCF1B8
:101E6000030F3AD009DCBCF1000F2AD0BCF1010FFE
:101E70001CD0BCF1020F31D11DE0BCF1110F17D005
:101E8000BCF1120F2AD119E0B8F5881F19D006DC71
:101E9000B8F5803F15D0B8F5801F1FD111E0B8F517
:101EA000001F0ED0B8F5041F18D10AE0CB6815E06A
:101EB000CB681B1D12E0CB6808330FE0CB680C33F6
:101EC0000CE08B682BB1012B4FF0080303D0456168
:101ED00004E0042302E0056100E00023FF2A01D8AA
:101EE000064601E000F104064FEA840501D9A5F198
:101EF0002005D6F8008007FA05FC28EA0C0803FA4A
:101F000005F548EA0508C6F800804D68ED0062D581
:101F1000374DAE6946F00106AE61AD6924F00306A7
:101F200005F001050095334D06EB050CDCF8085073
:101F3000A607360F07FA06F825EA0805DFF8B88085
:101F4000404503D14FF0000817E044E0DFF8AC80D3
:101F5000404502D14FF001080FE0DFF8A480404572
:101F600002D14FF0020808E0DFF89880404502D126
:101F70004FF0030801E04FF0040808FA06F848EAB9
:101F80000508CCF808804D68D9F80060ED024D4690
:101F900001D5164300E096432E604D68DAF80060E4
:101FA000AD02554601D5164300E096432E604D68BC
:101FB000DBF80060AD035D4601D5164300E09643B3
:101FC0002E604D68DEF80060ED03754601D51643BE
:101FD00000E096432E60641C0D682A46E5407FF4BD
:101FE00031AFBDE8F88F0000080401400000111077
:101FF000001002400000014000080140000C0140B8
:102000000010014000140140014880687047000042
:102010000C000020024881680278114481607047FA
:102020000C000020074810B5016841F01001016064
:10203000032000F0A7F80F2000F006F800F050F899
:10204000002010BD0020024030B505461F4887B073
:10205000C16941F00401C161C06906A900F0040032
:10206000009001A800F036F90498B0B100F052F9E0
:1020700040001749174AB0FBF1F11748491E0260AA
:10208000416040F2E7320021C0E9032181608161B3
:1020900000F018FB040003D015E000F03BF9E8E77E
:1020A0000D4800F03DFB04000DD11E2000F03CF86F
:1020B000102D07D2002229461E2000F043F80748C1
:1020C000056000E0012407B0204630BD001002404A
:1020D00040420F000008004068030020100000206C
:1020E0000F4808B5816941F001018161816901F002
:1020F00001010091C16941F08051C161C0690022B4
:1021000000F0805000900F21901E00F01BF8054851
:10211000416821F0E06141F00071416008BD0000BC
:102120000010024000000140002809DB00F01F02FF
:10213000012191404009800000F1E020C0F8001129
:1021400070470000F0B40E4B1B680C46C3F302232B
:10215000C3F10705042D00D90425191D072901D253
:10216000002300E0DB1E012606FA05F1491E21408E
:1021700099409E40761E16403143F0BC00F0E3BF0C
:102180000CED00E0064900F0070208684FF6FF0377
:10219000184040EA0220034A1043086070470000DC
:1021A0000CED00E00000FA052DE9F0470F460500B0
:1021B00061D0434E306800F00700B84209D2306861
:1021C00020F0070038433060306800F00700B84264
:1021D00051D128683B4C810712D5400703D5606870
:1021E00040F4E06060602878000703D5606840F440
:1021F000605060606068A96820F0F000084360608B
:102200002878C00728D06868012810D021680228E3
:1022100010D0890700292EDA616821F003010143FB
:102220006160FFF7F1FE804641F288390DE02168D8
:102230008903EFE78901EDE7FFF7E6FEA0EB080170
:10224000494502D90320BDE8F0876068696800F05D
:102250000C00B0EB810FEFD1306800F00700B842FE
:102260000BD9306820F0070038433060306800F048
:102270000700B84201D00120E5E72878400705D5DE
:102280006068E96820F4E06008436060287800072F
:1022900006D56068296920F4605040EAC10060609A
:1022A00000F058F86168084AC1F30311515CC84056
:1022B0000649086006480068FFF7C6FE0020C2E72E
:1022C000002002400010024046470008180000208D
:1022D000100000200F2202600C4A536803F0030331
:1022E0004360536803F0F0038360536803F4E063D2
:1022F000C36052684FF4E06303EAD202026104480B
:10230000006800F0070008607047000000100240FD
:10231000002002400448054900684968044AC1F3A6
:102320000221515CC8407047180000200010024094
:10233000564700080448054900684968044AC1F343
:10234000C221515CC84070471800002000100240B4
:10235000564700080E4A51680E4801F00C03042B42
:1023600011D0082B0FD10C48C1F38343C903C05CC3
:102370000AD55168084AC1F34041921E515C054A92
:102380005043B0FBF1F070470449484370470000E8
:102390000010024000127A003647000800093D0094
:1023A0002DE9F84F040070D02078C04DC00749D007
:1023B0006868C0F38100012807D06868C0F3810015
:1023C000022809D16868C00306D52868800339D57A
:1023D00060680028E7D035E06068B0F5803F0BD03A
:1023E00010B1B0F5A02F11D0286820F480302860FB
:1023F000286820F4802002E0286840F480302860BB
:10240000606890B1FFF700FE06460AE0286840F4D5
:1024100080202860F0E700BFFFF7F6FD801B6428EE
:1024200073D828688003F7D50CE0FFF7EDFD06466A
:1024300005E000BFFFF7E8FD801B6428F0D828689E
:102440008003F7D420789A4E80074FF001094FF0AF
:10245000000839D5686810F00C0F07D06868C0F321
:102460008100022809D16868C00306D42868800763
:1024700014D52069012808D110E02069B0B1C6F850
:102480000090FFF7C1FD074605E00AE1FFF7BCFD3C
:10249000C01B0228C4D828688007F7D5286861695E
:1024A00020F0F80040EAC10028600DE0C6F8008086
:1024B000FFF7AAFD074604E0FFF7A6FDC01B0228B0
:1024C00023D828688007F7D4207800072CD57948CE
:1024D000A169D9B1C0F80090FFF796FD074604E066
:1024E000FFF792FDC01B02280FD8686A8007F7D556
:1024F00071484FF4FA510068B0FBF1F0009000BF52
:102500000098411E0091FAD20EE080E0C0F80080F1
:10251000FFF77AFD074604E0FFF776FDC01B0228AF
:1025200075D8686A8007F7D42078400760D5E869D5
:102530000027C00008D4E86940F08050E861E869ED
:10254000012700F0805000905C480168C90513D451
:102550000168834641F480710160FFF755FD8246B2
:1025600006E000BFFFF750FDA0EB0A0064284ED83C
:10257000DBF80000C005F5D5E06801280AD008B1F5
:10258000052813D0286A20F001002862286A20F06C
:10259000040002E0286A40F001002862E06841F28D
:1025A000883B98B1FFF730FD82460BE0286A40F087
:1025B00004002862EEE700BFFFF726FDA0EB0A014A
:1025C00059455AD8286A8007F6D50CE0FFF71CFD5C
:1025D000824605E0FFF718FDA0EB0A0159454CD8EB
:1025E000286A8007F6D41FB1E86920F08050E861BE
:1025F000E06988B36968C1F38101022944D00228E7
:10260000C6F8608004D0FFF7FFFC044638E034E0F1
:10261000FFF7FAFC074604E0FFF7F6FCC01B0228B0
:102620002BD828688001F7D4206AB0F5803F05D107
:102630006868A16820F4003008436860D4E90801A4
:102640000843696821F4741108436860C6F8609013
:10265000FFF7DAFC044606E025E000BFFFF7D4FCF4
:10266000001B022809D828688001F7D51BE000BFAD
:10267000FFF7CAFC001B022802D90320BDE8F88F2F
:1026800028688001F4D40EE00128F7D06868226A37
:1026900000F48031914204D1616A00F470108842E4
:1026A00001D00120EAE70020E8E700000010024026
:1026B00000004242800442421800002000700040A6
:1026C0007047704710B5040003D094F83D0010B176
:1026D00007E0012010BD002084F83C00204600F0F7
:1026E0001EF8022084F83D00211D206800F0ACFB9C
:1026F000012084F8460084F83E0084F83F0084F806
:10270000400084F8410084F8420084F8430084F8D3
:10271000440084F8450084F83D00002010BD704757
:1027200090F83D10012901D001207047022180F866
:102730003D100168CA6842F00102CA6000680B4996
:10274000884208D0B0F1804F05D00949884202D0B4
:102750000849884204D1816801F00701062903D0A5
:10276000016841F00101016000207047002C014028
:102770000004004000080040704770B5044600683F
:1027800001694FF00005C943890715D4C168C943E1
:10279000890711D4E91E0161012020772068806932
:1027A0008007204602D0FFF7E7FF04E000F098F82A
:1027B000204600F096F8257720680169C94349074B
:1027C00017D4C168C943490713D46FF004010161EC
:1027D000022020772068806910F4407F204602D0D4
:1027E000FFF7CAFF04E000F07BF8204600F079F81C
:1027F000257720680169C943090716D4C168C94310
:10280000090712D46FF008010161042020772068C5
:10281000C0698007204602D0FFF7AEFF04E000F059
:102820005FF8204600F05DF8257720680169C9430C
:10283000C90617D4C168C943C90613D46FF0100183
:102840000161082020772068C06910F4407F20468D
:1028500002D0FFF791FF04E000F042F8204600F0BC
:1028600040F8257720680169C943C90708D1C168C4
:10287000C943C90704D1891E0161204600F032F81E
:1028800020680169C943090609D4C168C94309061A
:1028900005D46FF0800101612046FFF711FF206829
:1028A0000169C943490609D4C168C943490605D429
:1028B0006FF040010161204600F01EF820680169B8
:1028C000C94389060BD4C168C943890607D46FF090
:1028D000200101612046BDE87040FFF7F2BE70BDE7
:1028E0007047704700680349884201D1FFF792BBE7
:1028F00070470000000800407047704770470000B4
:10290000F8B5016804460868CA684B6910F00F0FF3
:102910004FF0000559D003F0010602F490773743D9
:1029200065D0C10705D0D10503D5616C41F0010127
:102930006164410705D5D90703D0616C41F00201FC
:102940006164810705D5D90703D0616C41F00401AA
:102950006164010707D502F02001314303D0616CA7
:1029600041F008016164616C00293AD0800604D509
:10297000900602D5204600F0CCFA20684069616CD0
:10298000C0F38010090700D460B3204600F09AFA23
:1029900020684069400621D52068143050E8001FA7
:1029A00021F0400140E80012002AF5D1E06BA8B107
:1029B0006D494163E06BFFF7EBF9002811D0E06B44
:1029C000416B01B0BDE8F040084783060FD5930680
:1029D0000DD52046BDE8F84000F09BBA2046FFF731
:1029E0008DFFF8BD2046FFF789FF6564F8BD266BB3
:1029F0002023012E7CD1C6067AD5D60678D5086864
:102A00004868009048694FF00206400640D5E16BE7
:102A1000086840680004000CE8D0A28D8242E5D925
:102A2000E085886920282DD020680C3050E8001FF0
:102A300021F4807140E80012002AF5D1206814309A
:102A400050E8001F21F0010140E80012002AF5D1F2
:102A50002068143050E8001F21F0400140E80012C7
:102A6000002AF5D184F84230256320680C3050E804
:102A7000001F21F0100140E80012002AF5D1E06BA0
:102A8000FFF762F96663A08DE18D401A81B22AE0FA
:102A9000A08DE18D401A81B2E08D0028A6D00029DA
:102AA000A4D022680C3252E8000F20F4907042E863
:102AB0000007002FF5D12068143050E8002F22F0D5
:102AC000010240E80027002FF5D184F84230256349
:102AD00020680C3050E8002F22F0100240E800235C
:102AE000002BF5D166632046FFF707FFF8BDFFE72F
:102AF00005062BD5150629D594F841002128F5D1D6
:102B0000A068B0F5805F01D12069B0B1206A411C96
:102B10002162216800784860E08C401E0004000CAF
:102B2000E084E3D12068C16821F08001C1602068A1
:102B3000C16841F04001C160D8E7206A0088C0F355
:102B400008004860206A801C2062E5E74006CDD579
:102B50005006CBD5CA68204622F04002CA6084F8ED
:102B6000413000F0F1F8C1E7B52E000870B504005F
:102B700004D094F84100002510B106E0012070BD9A
:102B800084F84050204600F023F8242084F84100C7
:102B90002068C16821F40051C160204600F01AFA93
:102BA0002068016921F4904101612068416921F0A8
:102BB0002A0141612068C16841F40051C160656427
:102BC000202084F8410084F842006563002070BD35
:102BD00030B585B0002400940194029403942E4DE6
:102BE00003682E4802210322AB4227D1C36943F474
:102BF0000033C361C36903F400330493836943F072
:102C0000040383618069264D00F0040004900420D1
:102C1000CDE90001039269462846FFF705F908202F
:102C2000CDE90004694628460294FFF7FDF800222A
:102C300005212620FFF786FA262029E0194DAB4210
:102C400028D1C36943F48023C361C36903F480239B
:102C50000493836943F0080383618069039200F061
:102C6000080004902815CDE900010F4D694628465B
:102C7000FFF7DAF8E814CDE9000469462846029423
:102C8000FFF7D2F8002205212720FFF75BFA272063
:102C9000FFF74AFA05B030BD004400400010024082
:102CA0000008014000480040000C014070472DE939
:102CB000F843044690F841001F4616460D4620286A
:102CC00002D00220BDE8F8837DB176B100206064B7
:102CD000212084F84100FFF797F9A6848046E68416
:102CE000A068B0F5805F02D003E00120EAE7206928
:102CF00010B12E4600250EE000260CE08021204673
:102D000000F0C4F9A0B9AEB116F8010B2168486013
:102D1000E08C401EE084E08C43464FF000020097B8
:102D20000028EBD14FF04001204600F0AFF930B160
:102D30000320C7E735F8020BC0F30800E6E72020C0
:102D400084F841000020BDE77047FEE7FEE7FEE79C
:102D50000EB50E4D4FF0FF364FF4FA773246684607
:102D6000696800F0A1FA0AA0019C00F0FDFD21466F
:102D70000DA000F0F9FD642C01D90CA000E00DA01D
:102D800000F0F2FD384600F06FFAE7E7000000209F
:102D90000A20746869732069732053657665725FD1
:102DA0007461736B20000000256400000A206572C6
:102DB000726F72000A2074727565000010B55020A1
:102DC00080F31188BFF34F8FBFF36F8F01F012FBB9
:102DD00018B104494FF080500860002080F311883A
:102DE00010BD000004ED00E010B590B02821684649
:102DF000FDF734FB14210AA8FDF730FB02200090F8
:102E00000120049010200024059007946846FFF7E5
:102E1000C7FA08B172B6FEE70F20CDE90A040C9498
:102E20000D9400210AA80E94FFF7BEF9002801D0E6
:102E300072B6FEE710B010BD704700000148FFF702
:102E40009CBC000068030020F0B50268164B174CCC
:102E5000174D4FF08047984205D0B84203D0A042AA
:102E600001D0A84203D122F070064A68324398424A
:102E700005D0B84203D0A04201D0A84203D122F429
:102E80004074CA6822434C6922F0800222430260E7
:102E90008A68C2620A688262984201D10969016344
:102EA00001214161F0BD0000002C01400004004000
:102EB0000008004010B5406A0021C185C184FFF7B9
:102EC0001DFD10BD01680C3151E8002F22F49072F5
:102ED00041E80023002BF5D10168143151E8002F9F
:102EE00022F0010241E80023002BF5D1016B0129FA
:102EF00009D101680C3151E8002F22F0100241E89D
:102F00000023002BF5D1202180F84210002101631D
:102F1000704708B590F84210222901D0022008BD60
:102F200082684FF480539A4201D1016921B1816ACC
:102F30009A421BD04AB10AE00268816A5268C2F321
:102F400008020A80816A891C08E0026972B102687D
:102F5000526802F07F020A70816A491C8162C18D49
:102F6000491E0904090CC18503D01BE002685268A0
:102F7000F1E70168CA6822F02002CA600168CA68E5
:102F800022F48072CA6001684A6922F001024A6133
:102F9000202180F8421000214163026B012A03D0F6
:102FA000FFF784FE002008BD016301680C3151E881
:102FB000002F22F0100241E80023002BF5D1016818
:102FC0000A68D20602D50A6849680091818DFFF728
:102FD00094FCE7E770B5044600680169E26821F4F3
:102FE0004051114301612169A068084361690843A8
:102FF0002168CA6841F20C639A430243CA602068A0
:103000004169A26921F44071114341611E49206860
:10301000884202D1FFF78EF901E0FFF77BF900EB60
:10302000C00101EB0012606864218000B2FBF0F384
:10303000B3FBF1F36FF018067343B2FBF0F5B2FB8C
:10304000F0F605EB8305322303EB0515B5FBF1F52F
:10305000B6FBF1F605F0F00505EB0615B2FBF0F650
:10306000B2FBF0F0B0FBF1F06FF01802504306EB4A
:10307000800003EB0010B0FBF1F0216800F00F00BE
:103080002844886070BD0000003801402DE9F041FF
:10309000984617460E460446069D27E0681C25D034
:1030A0002DB1FEF7B1FFA0EB0800A8421ED92068A1
:1030B0000C3050E8001F21F4D07140E80012002AC3
:1030C000F5D12068143050E8001F21F0010140E8DC
:1030D0000012002AF5D1202084F8410084F8420033
:1030E000002084F840000320BDE8F08120680068DB
:1030F00036EA000004D00020B842CFD00020F3E729
:103100000120F9E70148FFF7FBBB00008400002025
:103110000148FFF7F5BB0000CC000020FEE74900A6
:1031200050EAC12018BF04204A0D18BF40F001002A
:1031300040F2FF72B2EB515F08BF40F0020001287D
:1031400008BF052070470907090E002804DB00F1BD
:10315000E02080F80014704700F00F0000F1E0203C
:1031600080F8141D704730380A2801D201207047BA
:1031700000207047EFF30580002800D00120704741
:1031800094B0FEF74FFFFFF72FFE2E48816941F004
:1031900004018161816901F004011291816941F0AA
:1031A000080181618069284900F0080012902748D1
:1031B0004FF4E13500240160C0E901540C26C460DD
:1031C000C0E904468461C461FFF7D0FC08B172B65F
:1031D000FEE71E481E4948300160C0E90154C46042
:1031E000C0E904468461C461FFF7C0FC08B172B64F
:1031F000FEE7164800F0B2FB164B0DF1380C0FCB72
:103200008CE80F0000210EA800F03AF8124C11498A
:103210001C22606010316846FDF7EEF80021684618
:1032200000F0BAF80B4920601C222C3107A8FDF7EA
:10323000E3F8002107A800F0AFF8A06000F01BF849
:10324000FEE700000010024000440040840000201F
:1032500000480040EC460008000000200146002025
:10326000842900D0C81C704710B500B9012000F0B7
:1032700081FC002010BD10B500F0C8FC002010BD7E
:1032800038B5D0E9011204683AB1C3682BB1002007
:103290000090204600F09EFD38BD2046BDE8384035
:1032A000002200F073BD00002DE9FF410D004FF03A
:1032B0000006CDE9016507461ED000240396501C88
:1032C0001FD002B11446FFF755FF69464FF01008B2
:1032D000E8B103AA2846091D00F09EFF012813D07B
:1032E00000960398E8B114494FF080500860BFF38E
:1032F0004F8FBFF36F8F14E0802031462A46009035
:1033000011E04FF0FF34DEE7CDF80080E9E7224618
:103310002846091D00F0E4FE012808D054B14020E1
:1033200000909DE8070087E80700BDE8FF81CDF821
:103330000080F6E70020F3E704ED00E037B505462E
:1033400082B000200090140000D10124FFF712FF8A
:103350004FF0000388B16A4603A9284600F062FED8
:10336000012811D1009890B10A494FF080500860AF
:10337000BFF34F8FBFF36F8F09E0224603A92846A2
:1033800000F0A0FD012802D0FF2005B030BD0020D4
:10339000FBE7000004ED00E07FB50D4604464169FF
:1033A000B0F9080081B1A16971B1FFF757FFD4E905
:1033B00005128DE80700D4E900102B46226900F0C1
:1033C000E0FF039004B070BDFFF748FF03A9CDE90B
:1033D0000001208A2B4682B2D4E9001000F0A4FF3D
:1033E000012801D00020EDE70398EBE72DE9F0413B
:1033F000184C0F46054666692068001D00F0CCFA9F
:1034000038B9206890F82C1001208840A1698143C8
:10341000A161681C07D137B12168BDE8F0410E48B1
:10342000091D00F0FDBA20683544B54245602168A9
:1034300005D2A068BDE8F041091D00F0D9BA606866
:10344000091D00F0D5FA206B854200D22563BDE846
:10345000F08100001C0000208C0400202DE9F041C8
:10346000054600F0E9FA2E4C2069401C20612068D6
:103470002C4F10B1E06940B32DE025602069012890
:1034800029D1002606EB860007EB800000F0A2FAA7
:10349000761C072EF6D323488C3000F09BFA214887
:1034A000A03000F097FA1F48B43000F093FA1D489E
:1034B000C83000F08FFA1B48DC3000F08BFA194856
:1034C0008C3060601430A06005E02068E96AC06A52
:1034D000884200D82560E06A401CE062E96A012069
:1034E000A26988401043A06101EB810007EB8000D6
:1034F000291D00F095FA00F0BFFAE06900280CD011
:103500002068E96AC06A884207D207494FF08050B4
:103510000860BFF34F8FBFF36F8FBDE8F0810000ED
:103520001C000020B003002004ED00E030B4026C69
:103530000B46002A0BD0C1681144C1604468A14207
:1035400001D30168C16030BC1846FCF710BF30BC25
:1035500070472DE9F041856B174604460026026C42
:1035600082B1C7B1E068FCF702FFE168206C091A7C
:10357000E1602268914202D26168081AE060022F7D
:1035800016D017E02068A8B9606800F097FF0646DB
:10359000002060600EE0A068FCF7E9FE216CA068E6
:1035A0000844A0606168884204D32068A06001E0FC
:1035B00005B16D1E6D1CA5633046BDE8F08110B5E8
:1035C000044690F8510058B101280CD002280FD0C1
:1035D000502080F31188BFF34F8FBFF36F8FFEE74A
:1035E000206B00F05DFA2046BDE8104000F058BAAC
:1035F00010BD000010484FF44061420706D0C01DC6
:103600000D4920F00700411AC1F540610B4A002323
:103610000144C2E900030839103A21F007011160A2
:103620004B600B600B1AC0E9001393604FF0004031
:103630005360D06070470000A004002068000020A4
:10364000144E154CA6F1C8074FF08058DFF84C9087
:1036500012E000BF00F0F0F9F068C568281D00F026
:103660009BF92069401E2061E068401EE06000F088
:1036700003FA2846FFF7A3FFE0680028EAD138687C
:103680000128F9D9C9F80080BFF34F8FBFF36F8FBE
:10369000F2E70000780400201C00002004ED00E0A8
:1036A0000346009829B10260C0E90F31012100F002
:1036B000C5BB0060F8E72DE9F0479A46DDE90984CB
:1036C00081466FF00303206B03EB82021044089DD8
:1036D00020F00706700707D0502080F31188BFF351
:1036E0004F8FBFF36F8FFEE723180A5C83F83420F7
:1036F0000A5C12B1401C1028F6D3002784F84370EE
:10370000072D00D30625E562C4E91157201D00F0FE
:103710006CF904F1180000F068F92461C5F10700A4
:103720006462A061E76484F85070524649463046AE
:1037300000F002F92060B8F1000F01D0C8F8004095
:10374000BDE8F08730B5114900E011460A688242B1
:10375000FBD34B685C18844203D14068184448602E
:10376000084643681C18944209D1084C103C246850
:10377000A24209D052681A4442600A681268026084
:10378000814200D0086030BD0460F9E76800002085
:1037900010B5044600F050F9A06B28B15FF00004AA
:1037A00000F06AF9204610BD0124F9E70648416897
:1037B000096829B14168C968C968496801637047E7
:1037C0004FF0FF31FAE700001C0000200848406875
:1037D000401C4FF0500080F3118804D0BFF34F8F8E
:1037E000BFF36F8FFEE7BFF34F8FBFF36F8FFEE71F
:1037F000700000202DE9F041044600F01DF994F915
:10380000455004F1240609E0606A48B1304600F0F2
:10381000A1FE08B100F0DCF96D1E6DB2002DF3DCE5
:103820004FF0FF3684F8456000F026F900F004F907
:1038300094F9445004F1100709E0206948B1384672
:1038400000F088FE08B100F0C3F96D1E6DB2002DC6
:10385000F3DC84F84460BDE8F04100F00DB90000ED
:103860002DE9F0410546002700F006FA314E306898
:1038700008B9FFF7BFFEF06805424BD1C5B3083564
:1038800068070ED005F00700C0F10800054468077E
:1038900007D0502080F31188BFF34F8FBFF36F8F95
:1038A000FEE72DB37068854234D8224810300146B7
:1038B0000C6801E020460C466168A94202D22168EA
:1038C0000029F7D131688C4224D007682168016053
:1038D00060680837411B10290FD96019420708D0CA
:1038E000502080F31188BFF34F8FBFF36F8FFEE737
:1038F00010E041606560FFF725FF61687068401A5D
:103900007060B268904200D2B060F068014300205D
:10391000C4E9000100F058FE780707D0502080F37A
:103920001188BFF34F8FBFF36F8FFEE73846BDE8B6
:10393000F08100005800002010B5031F4FF0807484
:103940001C601B1F21F001011960191F024B0B6045
:10395000143940380A6010BDCD370008014948606D
:10396000704700007C0000200FB400B599B01BAA7E
:1039700068461A99FCF7CAFC6846FCF7D9FC82B283
:103980000448642369464068FFF791F919B05DF86F
:1039900014FB00007C000020D0E9013201699A602C
:1039A000D0E901235A604A68824201D182684A60A4
:1039B000002202610868401E086008687047000025
:1039C000034B036003F154000860802010607047CF
:1039D0001401002000F108014FF0FF32C0E901128C
:1039E000C1600161002101607047002101617047E1
:1039F00030B50B685A1C02D000F1080202E00269DF
:103A000004E02246546825689D42FAD953684B6009
:103A100099608A60516008610168491C016030BD8D
:103A200042684A6093688B6093685960916008614E
:103A30000168491C01607047502080F31188BFF372
:103A40004F8FBFF36F8F0A494868401C48600128B8
:103A50000CD10848006810F0FF0F07D0502080F309
:103A60001188BFF34F8FBFF36F8FFEE770470000E1
:103A70007000002004ED00E00849486828B1401EAD
:103A8000486001D180F311887047502080F311887D
:103A9000BFF34F8FBFF36F8FFEE700007000002071
:103AA00070B5002827D0144DA0F108046168E868BB
:103AB000014207D1502080F31188BFF34F8FBFF32D
:103AC0006F8FFEE722683AB1502080F31188BFF370
:103AD0004F8FBFF36F8FFEE78143616000F0CCF83A
:103AE00060686968084468602046FFF72BFEBDE8FF
:103AF000704000F069BD70BD580000204FF0E0201C
:103B000000210161816105494FF47A720968B1FBB6
:103B1000F2F1491E41610721016170471800002040
:103B200010B5FCF7CFFB114910280ED300F1E020AF
:103B300090F8F0030A78904207D2502080F3118861
:103B4000BFF34F8FBFF36F8FFEE7094800688968A6
:103B500000F4E060884207D9502080F31188BFF359
:103B60004F8FBFF36F8FFEE710BD00007000002085
:103B70000CED00E010B5020014D00F48806B38B196
:103B8000502080F31188BFF34F8FBFF36F8FFEE794
:103B900000F072F800211046FFF728FC00F014FD39
:103BA000002807D105494FF080500860BFF34F8FC0
:103BB000BFF36F8F10BD00001C00002004ED00E07B
:103BC00002498A6A02604969416070471C0000200E
:103BD00001490120486270471C00002010B50C46C6
:103BE00050B1094909681831FFF702FF2046BDE8C6
:103BF00010400121FFF7FABB502080F31188BFF37A
:103C00004F8FBFF36F8FFEE71C00002010B586B00A
:103C10000024039405AA04A903A80494FFF7D0FE86
:103C2000DDE903010094CDE9011000230EA1104845
:103C3000059A00F0A6FB0F490028486311D05020D8
:103C400080F31188BFF34F8FBFF36F8F4FF0FF30BA
:103C500008630120C8614C6106B0BDE8104000F067
:103C600041B806B010BD000049444C4500000000BA
:103C7000413600081C0000200248816B491C81630A
:103C8000704700001C0000201448816B11B1012115
:103C900041627047002141628169B1FA81F1C1F14D
:103CA0001F0101EB81020E4951F822306BB101EB8B
:103CB000820101F108034A6852684A609A4201D1C0
:103CC00052684A60D16801607047502080F31188C3
:103CD000BFF34F8FBFF36F8FFEE700001C00002083
:103CE000B00300201CB5264908780190FF20087019
:103CF00008788DF800009DF800009DF8002000F085
:103D0000F000904207D0502080F31188BFF34F8F0E
:103D1000BFF36F8FFEE79DF800001A4B00F05000D4
:103D200018700720986005E09DF8002052008DF87B
:103D30000020401E9DF800201206F5D4986003284C
:103D400007D0502080F31188BFF34F8FBFF36F8FE0
:103D5000FEE74FF440709860019808700A480168C7
:103D600041F470010160016841F070410160FFF7AA
:103D7000C5FE00205860FCF76FFA00201CBD000053
:103D800000E400E07000002020ED00E0F8B51746E8
:103D90000E46050014D0DEB105FB06F04830FFF7F3
:103DA0005FFD04000AD0002084F8460004F14802B8
:103DB0003B46314628460094FFF772FC2046F8BD8A
:103DC000502080F31188BFF34F8FBFF36F8FFEE752
:103DD0000020E3E738B5049D18B153B1CAB181B1F1
:103DE00020E0502080F31188BFF34F8FBFF36F8F17
:103DF000FEE7502080F31188BFF34F8FBFF36F8F22
:103E0000FEE7502080F31188BFF34F8FBFF36F8F11
:103E1000FEE739B1502080F31188BFF34F8FBFF315
:103E20006F8FFEE748241C46012384F846302B465A
:103E30000094FFF735FC204638BD000070B50D46F4
:103E4000040025D0FFF7F8FDD4E90F20216802FB1C
:103E5000001161600021A1632168A1600A46D4E9D4
:103E60000F01401E00FB0121E16021464FF0FF30B1
:103E700001F8440F487004F110008DB1FFF7AAFD5E
:103E800004F12400FFF7A6FDFFF7F6FD012070BD49
:103E9000502080F31188BFF34F8FBFF36F8FFEE781
:103EA00021690029F0D000F055FB0028ECD004492E
:103EB0004FF080500860BFF34F8FBFF36F8FE3E781
:103EC00004ED00E02DE9FF4782B01D468A464FF021
:103ED0000008040003D0BAF1000F08D011E0502010
:103EE00080F31188BFF34F8FBFF36F8FFEE7206C15
:103EF00038B1502080F31188BFF34F8FBFF36F8F1D
:103F0000FEE7022D0AD1E06B012807D0502080F394
:103F10001188BFF34F8FBFF36F8FFEE700F05CFA9D
:103F20003F4F4FF000094FF0805648B9049838B120
:103F3000502080F31188BFF34F8FBFF36F8FFEE7E0
:103F4000FFF77AFDA06BE16B884207D3022D05D005
:103F50000498D0B1B8F1000F1AD01EE02A4651469D
:103F60002046FFF7F6FA616A19B104F1240000F067
:103F7000F1FA20B13E60BFF34F8FBFF36F8FFFF7B1
:103F80007BFD012006B0BDE8F087FFF775FD22E05C
:103F90006846FFF715FE4FF00108FFF76DFDFFF7CC
:103FA0006BFEFFF749FD94F94400401C01D184F8F1
:103FB000449094F94500401C01D184F84590FFF7E6
:103FC0005BFD04A9684600F075F930B12046FFF7A3
:103FD00011FC00F0F9FA0020D4E7FFF72DFDA06BEB
:103FE000E16B884213D1FFF747FD04F110000499FB
:103FF000FFF7F4FD2046FFF7FDFB00F0E5FA00288F
:104000009ED13E60BFF34F8FBFF36F8F98E7FFF7EE
:1040100033FD2046FFF7EEFB00F0D6FA90E70000F4
:1040200004ED00E02DE9F0471F4690468946040064
:1040300003D0B9F1000F08D011E0502080F31188AF
:10404000BFF34F8FBFF36F8FFEE7206C38B1502066
:1040500080F31188BFF34F8FBFF36F8FFEE7022FFE
:104060000AD1E06B012807D0502080F31188BFF3FC
:104070004F8FBFF36F8FFEE7FFF752FD5020EFF336
:10408000118680F31188BFF34F8FBFF36F8FA06B42
:10409000E16B884206D3022F04D0002086F31188FA
:1040A000BDE8F08794F945503A4649462046FFF767
:1040B00050FA681C04D06D1C84F845500120EDE7CF
:1040C000606A0028FAD004F1240000F043FA0028C6
:1040D000F4D0B8F1000FF1D00121C8F80010EDE7DD
:1040E0002DE9F747002683B08A46040003D0BAF1D1
:1040F000000F08D011E0502080F31188BFF34F8FDC
:10410000BFF36F8FFEE7206C38B1502080F3118829
:10411000BFF34F8FBFF36F8FFEE700F05DF9DFF85D
:10412000F4804FF000094FF0805748B9059838B136
:10413000502080F31188BFF34F8FBFF36F8FFEE7DE
:10414000FFF77AFCA56BC5B151462046FFF7EEF9A3
:104150006D1EA563206950B104F1100000F0FAF95A
:1041600028B1C8F80070BFF34F8FBFF36F8FFFF710
:1041700083FC012006B0BDE8F087059808B11EB1A8
:1041800006E0FFF779FC27E06846FFF719FD0126F6
:10419000FFF772FCFFF770FDFFF74EFC94F9440047
:1041A000401C01D184F8449094F94500401C01D191
:1041B00084F84590FFF760FC05A9684600F07AF89E
:1041C000002820460AD0FFF715FB00F0FDF9204635
:1041D000FFF7DEFA0028B3D00020CBE7FFF7D8FACC
:1041E00090B104F124000599FFF7F8FC2046FFF791
:1041F00001FB00F0E9F90028A2D1C8F80070BFF374
:104200004F8FBFF36F8F9BE72046FFF7F3FA00F065
:10421000DBF995E704ED00E02DE9F047904689468B
:10422000040003D0B9F1000F08D011E0502080F352
:104230001188BFF34F8FBFF36F8FFEE7206C38B14B
:10424000502080F31188BFF34F8FBFF36F8FFEE7CD
:10425000FFF766FC5020EFF3118680F31188BFF35F
:104260004F8FBFF36F8FA76BF7B194F94450494656
:104270002046FFF75BF97F1EA763681C04D06D1C06
:1042800084F84450012010E020690028FAD004F19D
:10429000100000F05FF90028F4D0B8F1000FF1D061
:1042A0000121C8F80010EDE7002086F31188BDE871
:1042B000F08700002DE9F0410C46050011D0C4B193
:1042C000FFF7BAFB174B5A696E682068911B471CB1
:1042D00017D02F689B6A9F4219D0964217D80124A5
:1042E00010E0502080F31188BFF34F8FBFF36F8F22
:1042F000FEE7502080F31188BFF34F8FBFF36F8F1D
:10430000FEE70024FFF7B8FB2046BDE8F0818842B5
:1043100005D9401A20602846FFF752FCF1E700203B
:104320002060DCE71C0000202DE9FF5F8346DDE90B
:104330000E87994616468A469000FFF791FA0500C7
:104340001CD05420FFF78CFA040014D00020256301
:1043500084F85100CDE90240CDE900874B46324652
:1043600051465846FFF7A7F92046FFF777F8012096
:1043700004B0BDE8F09F2846FFF792FB4FF0FF30F6
:10438000F6E7F0B585B0DDE90B640A9DA6B1DCB1B6
:10439000542700972663022684F85160002604AF54
:1043A000CDE90246CDE90057FFF785F92046FFF732
:1043B00055F8049805B0F0BD502080F31188BFF384
:1043C0004F8FBFF36F8FFEE7502080F31188BFF34C
:1043D0004F8FBFF36F8FFEE70548C16919B1806B3E
:1043E00018B100207047012070470220704700007C
:1043F0001C0000202DE9F0412E4C0027A06B40B19D
:10440000206A401C2062606A00B101273846BDE87E
:10441000F0816669761C666113D16068006838B106
:10442000502080F31188BFF34F8FBFF36F8FFEE7EB
:104430006068A1686160A060A06A401CA062FFF78C
:10444000B5F9206BDFF87080864209D36068006898
:1044500080B16068C068C568686886420DD2206314
:104460002068C06A00EB800158F821000128CAD9F1
:104470000127C8E74FF0FF30F1E7281DFFF78CFA5E
:10448000A86A18B105F11800FFF786FAE86A012159
:10449000A26981401143A16100EB800108EB81001A
:1044A000291DFFF7BDFAE86A2168C96A8842CDD3A1
:1044B0000127CBE71C000020B003002070B50400EA
:1044C0004FF0000140D0214D2868844207D0502091
:1044D00080F31188BFF34F8FBFF36F8FFEE7A06C9F
:1044E00038B1401EA064636CE26A9A422CD040B19D
:1044F0002AE0502080F31188BFF34F8FBFF36F8FF6
:10450000FEE7201DFFF748FA114A012150B9E06A81
:1045100000EB800352F8233023B9AB6901FA00F0B5
:104520008343AB61606CE062C0F10700A061E06AA8
:10453000AB6981401943A96100EB800002EB800068
:10454000211DFFF76DFA0121084670BD1C000020F7
:10455000B00300202DE9F041C068C468ACB104F19B
:1045600018000746FFF718FA154DA86B0126A0B1F1
:1045700039461448FFF754FAE06A2968C96A884244
:104580001CD901206E62BDE8F081502080F31188B3
:10459000BFF34F8FBFF36F8FFEE7201DFFF7FCF9CE
:1045A000E16AAA6906FA01F01043A86101EB8100F3
:1045B0000449B43901EB8000211DDBE70020E2E76C
:1045C0001C000020640400202DE9F0472C4D00243D
:1045D0002746A86B38B1FFF72FFAA86B401EA863D7
:1045E000A86B40B146E0502080F31188BFF34F8F95
:1045F000BFF36F8FFEE72969224E0120D1B3A6F1E8
:10460000B40980463068E8B1F068C46804F1180065
:10461000FFF7C2F9201DFFF7BFF9E06AAA6908FA9F
:1046200000F11143A96100EB800109EB8100211D1C
:10463000FFF7F6F9E06A2968C96A8842E2D3C5F84B
:104640002480DFE70CB1FFF7B1F82C6A44B146468D
:10465000FFF7D0FE00B16E62641EF9D1002028621F
:10466000686A38B10849012738070860BFF34F8FDF
:10467000BFF36F8FFFF700FA3846BDE8F087000000
:104680001C0000206404002004ED00E010B50029A7
:104690000AD00878002807D005487844FCF724FFA2
:1046A000002801D0002010BD0248784410BD000051
:1046B000F6010000EE01000010B500290AD00878CC
:1046C000002807D005487844FCF70EFF002801D0E9
:1046D000002010BD0248784410BD0000E601000033
:1046E000DE010000FCF70DBBFCF742BC100000002F
:1046F0000200000000000000000000006448000804
:10470000512D0008000000000000000080000000A3
:1047100000000000000000005C480008091D0008BF
:104720000100000000000000800000000000000008
:1047300000000000010202030405060708090A0B35
:104740000C0D0E0F10100000000000000000010210
:10475000030406070809000000000102030400002A
:1047600000000000000000003031323334353637AD
:1047700038394142434445464030580030313233A5
:1047800034353637383961626364656640307800A5
:10479000040000080000000000000002000100000A
:1047A00010303132333435363738396162636465FD
:1047B000667870003031323334353637383941421B
:1047C000434445465850000002400000000000A04D
:1047D0000000000005400000000000C800000000CC
:1047E0000C4000000000409C000000001940000048
:1047F0000020BCBE0000000034400000BFC91B8E7A
:1048000000000004B5400000504BCFD06607E2CF57
:10481000010000006C4100003E8251AADFEEA73487
:1048200001000000D9420000DCB5A0E23A301F9739
:10483000FFFFFFFFB4450000FD25A0C8E9A3C14F5D
:10484000FFFFFFFFFF3F00000000008000000000AE
:10485000FF3F000000000080000000005461736B07
:104860003100000064656661756C745461736B009F
:10487000BC49000800000020840000002801000856
:10488000404A0008840000207C1600004401000813
:104890001C00000043000000F8FFFFFF0C000000B8
:1048A0000E0000000F0000002E00000010010000AC
:1048B00043000000F8FFFFFF004040404040404000
:1048C00040404141414141404040404040404040E3
:1048D0004040404040404040400502020202020287
:1048E00002020202020202020220202020202020D6
:1048F00020202002020202020202909090909090EA
:1049000010101010101010101010101010101010A7
:10491000101010100202020202028888888888881B
:104920000808080808080808080808080808080807
:10493000080808080202020240000000000000000F
:104940000000000000000000000000000000000067
:104950000000000000000000000000000000000057
:104960000000000000000000000000000000000047
:104970000000000000000000000000000000000037
:104980000000000000000000000000000000000027
:104990000000000000000000000000000000000017
:1049A0000000000000000000000000000000000007
:1049B00000000000000000000000000000000000F7
:1049C00000000000000000000100000010000000D6
:1049D000000000000024F4000000000000000000BF
:1049E00000000000000000000000000000000000C7
:1049F00000000000000000000000000000000000B7
:104A000000000000000000000000000000000000A6
:104A10000000000000000000000000000000000096
:104A20000000000000000000000000000000000086
:104A3000AAAAAAAA000000000000000000000000CE
:04000005080000ED02
:00000001FF
